:100000000C945E000C9486000C9486000C94860080
:100010000C9486000C9486000C9486000C94860048
:100020000C9486000C9486000C9486000C94860038
:100030000C9486000C9486000C9486000C94860028
:100040000C9464030C9486000C94F8020C94D20275
:100050000C9486000C9486000C9486000C94860008
:100060000C94B5030C948600000000080002010007
:100070000003040700000000000000000000000072
:10008000250028002B0000000000240027002A0083
:10009000040404040404040402020202020203032E
:1000A0000303030301020408102040800102040836
:1000B0001020010204081020230B150B11241FBE71
:1000C000CFEFD8E0DEBFCDBF22E0AEE2B1E001C0AD
:1000D0001D92AB3BB207E1F711E0A0E0B1E0E8E927
:1000E000F1E202C005900D92AE32B107D9F710E0EF
:1000F000CDE5D0E004C02197FE010E94AD0ECC35C5
:10010000D107C9F70E9444070C94BF100C9400005B
:10011000FC01538D448D252F30E0842F90E0821B0D
:10012000930B541710F0CF96089501970895FC0192
:10013000918D828D981761F0828DDF01A80FB11D1E
:100140005D968C91928D9F5F9F73928F90E0089542
:100150008FEF9FEF0895FC01918D828D981731F0FC
:10016000828DE80FF11D858D90E008958FEF9FEF50
:100170000895FC01918D228D892F90E0805C9F4F26
:10018000821B91098F739927089587EF91E00E9450
:10019000B90021E0892B09F420E0822F0895FC01A9
:1001A000848DDF01A80FB11DA35ABF4F2C91848D00
:1001B00090E001968F739927848FA689B7892C9335
:1001C000A089B1898C9180648C93938D848D9813D0
:1001D00006C00288F389E02D80818F7D8083089599
:1001E000EF92FF920F931F93CF93DF93EC0181E087
:1001F000888F9B8D8C8D981305C0E889F989808143
:1002000085FD24C0F62E0B8D10E00F5F1F4F0F737E
:100210001127E02E8C8DE8120CC00FB607FCFACF28
:10022000E889F989808185FFF5CFCE010E94CF0052
:10023000F1CF8B8DFE01E80FF11DE35AFF4FF082E5
:100240000B8FEA89FB898081806207C0EE89FF8974
:100250006083E889F98980818064808381E090E00F
:10026000DF91CF911F910F91FF90EF900895CF9361
:10027000DF93EC01888D8823C9F0EA89FB898081AE
:1002800085FD05C0A889B9898C9186FD0FC00FB680
:1002900007FCF5CF808185FFF2CFA889B9898C91C1
:1002A00085FFEDCFCE010E94CF00E7CFDF91CF9148
:1002B000089580E090E0892B29F00E94C50081110B
:1002C0000C940000089590E0FC01E859FF4F349130
:1002D000FC01EC55FF4F2491FC01E057FF4FE491E6
:1002E000EE2309F43BC0332339F1333091F038F475
:1002F0003130A9F0323001F584B58F7D12C037302E
:1003000091F03830A1F03430B9F4809180008F7DC5
:1003100003C0809180008F77809380000DC084B5EA
:100320008F7784BD09C08091B0008F7703C0809122
:10033000B0008F7D8093B000F0E0EE0FFF1FE45817
:10034000FF4FA591B4918FB7F894EC91611103C060
:1003500020952E2301C02E2B2C938FBF08953FB7DD
:10036000F89480919A0190919B01A0919C01B09189
:100370009D0126B5A89B05C02F3F19F00196A11D30
:10038000B11D3FBFBA2FA92F982F8827820F911D2B
:10039000A11DB11DBC01CD0142E0660F771F881F72
:1003A000991F4A95D1F7089585ED8093BC008091FF
:1003B000BC0084FDFCCF1092D001089540917001E3
:1003C000262F30E0240F311D21323105DCF420913D
:1003D000D0012430C9F4FC0180E090E0861758F485
:1003E000309170012191DC01A25BBE4FA30FB11DC2
:1003F0002C930196F3CF80917001680F6093700188
:1004000080E0089581E0089582E008950895E091E4
:10041000D2018091D101E81730F4F0E0ED52FE4FA7
:10042000808190E008958FEF9FEF08959091D20121
:100430008091D101981750F4E92FF0E0ED52FE4F72
:10044000208130E09F5F9093D20102C02FEF3FEFF9
:10045000C90108958091D10190E02091D201821BC1
:1004600091090895CF92DF92EF92FF920F931F931D
:10047000CF93DF937C01262F972F8A018091F6017D
:10048000882391F0C62FD72F6E01C40ED51ECC1530
:10049000DD0571F06991D701ED91FC910190F0813A
:1004A000E02DC7010995F3CF642F822F0E94DE0152
:1004B000C801DF91CF911F910F91FF90EF90DF90D6
:1004C000CF900895CF93DF931F92CDB7DEB76983A6
:1004D0002091F6012223D1F02091F301203240F047
:1004E00021E030E0FC013383228380E090E015C0FE
:1004F0008091F401E82FF0E0E25DFE4F9981908356
:100500008F5F8093F4018093F30105C061E0CE0119
:1005100001960E94DE0181E090E00F90DF91CF9183
:100520000895089580E090E008950E94AA10EF9247
:10053000FF920F931F93CF93DF93EC017B01FB019D
:10054000048115811D830C83C80108969B838A83CF
:10055000880F991F0E94B30E88839983FC0120E0C5
:1005600030E02017310791F0E701A881B981C90176
:10057000880F991FA80FB91F309721F08D919C917A
:10058000918380832F5F3F4F3296EBCFDF91CF91E6
:100590001F910F91FF90EF900895FC018081918150
:1005A0000C94480F1F920F920FB60F9211242F93A5
:1005B0003F934F935F936F937F938F939F93AF93EB
:1005C000BF93EF93FF9387EF91E00E94CF00FF91DD
:1005D000EF91BF91AF919F918F917F916F915F91BB
:1005E0004F913F912F910F900FBE0F901F90189534
:1005F0001F920F920FB60F9211242F938F939F93F8
:10060000EF93FF93E0910702F09108028081E0915F
:100610000D02F0910E0282FD12C0908180911002B5
:100620008F5F8F7320911102821751F0E0911002B9
:10063000F0E0E950FE4F958F8093100201C0808159
:10064000FF91EF919F918F912F910F900FBE0F907F
:100650001F9018958F929F92AF92BF92CF92DF9288
:10066000EF92FF926B017C010E94AF014B015C0194
:10067000C114D104E104F104F1F00E94AF01DC01E6
:10068000CB0188199909AA09BB09883E9340A105A5
:10069000B10570F321E0C21AD108E108F10888EE33
:1006A000880E83E0981EA11CB11CC114D104E10482
:1006B000F10419F7DDCFFF90EF90DF90CF90BF905E
:1006C000AF909F908F9008951F920F920FB60F9248
:1006D00011242F933F938F939F93AF93BF93809158
:1006E000960190919701A0919801B0919901309154
:1006F000950123E0230F2D3720F40196A11DB11D94
:1007000005C026E8230F0296A11DB11D2093950177
:100710008093960190939701A0939801B0939901CB
:1007200080919A0190919B01A0919C01B0919D01B3
:100730000196A11DB11D80939A0190939B01A093F6
:100740009C01B0939D01BF91AF919F918F913F917B
:100750002F910F900FBE0F901F901895DC01ED9117
:10076000FC910190F081E02D09941F920F920FB639
:100770000F9211242F933F934F935F936F937F9327
:100780008F939F93AF93BF93EF93FF938091B900A3
:10079000887F803609F49CC068F5883209F45BC014
:1007A00090F4803109F454C038F4882309F4F6C079
:1007B000883009F44DC0F6C0883109F44CC080324D
:1007C00009F45DC0EFC0803409F468C048F4803398
:1007D00009F455C0883309F0E5C08093CE01D8C034
:1007E000803509F44FC0883509F45DC0883409F0BC
:1007F000D9C0D6C0883909F4C7C0A8F4883709F42D
:1008000067C038F4883609F463C0803709F460C0E3
:10081000C9C0883809F4B8C0803909F45FC080388D
:1008200009F0C0C05BC0803B09F486C038F4803A50
:1008300009F466C0883A09F47FC0B4C0803C09F46A
:10084000A7C0883C09F4A4C0883B09F48AC0AAC0A8
:100850008091CB0110C09091CD018091CC0198176F
:1008600070F5E091CD0181E08E0F8093CD01F0E035
:10087000E655FE4F80818093BB0085EC86C0809357
:10088000CE018EC0E091CD0181E08E0F8093CD012D
:100890008091BB00F0E0E655FE4F80839091CD0142
:1008A0008091CC016EC0E091CD0181E08E0F8093EC
:1008B000CD018091BB00F0E0E655FE4F8083809132
:1008C000CF0181116DC081E08093CA0184EA61C0CB
:1008D00083E08093D00110929401CFCF8091940156
:1008E000803208F051C0E091940181E08E0F809336
:1008F00094018091BB00F0E0EC58FE4F8083BDCFA7
:1009000085EC8093BC001092D001809194018032DC
:1009100030F4E0919401F0E0EC58FE4F10826091C9
:10092000940170E0E0917201F091730184E791E02D
:1009300009951092940136C084E08093D001109202
:10094000710110927001E0916E01F0916F010995B3
:1009500080917001811105C081E080937001109237
:100960004E01E091710181E08E0F80937101F0E002
:10097000E25BFE4F80818093BB009091710180917A
:100980007001981708F479CF85E88093BC000AC0FD
:1009900085EC8093BC001092D00104C01092CE016F
:1009A0000E94D401FF91EF91BF91AF919F918F91E0
:1009B0007F916F915F914F913F912F910F900FBE5B
:1009C0000F901F9018952091F3019091F50121321D
:1009D00008F04AC08091D0018111FCCF32E0309301
:1009E000D00131E03093CF013FEF3093CE01109230
:1009F000CD012093CC01AEE2B1E04AEA51E0FA0128
:100A00003E2F341B321718F43D913193F9CF1092D9
:100A1000CB012091CB01990F922B9093CB01909118
:100A2000CA01913061F41092CA019091CB01909368
:100A3000BB009091BC0093FDF8CF95EC01C095EE02
:100A40009093BC009091D0019230E1F39091CE014F
:100A50009F3F79F08091CE01803241F08091CE01AC
:100A6000803331F084E005C081E003C082E001C042
:100A700083E01092F4011092F3011092F6010895B0
:100A8000CF92DF92EF92FF920F931F93CF93DF935A
:100A9000EC018B017A018A819B818617970748F5C3
:100AA0009B01285F3F4F8217930718F5C880D980B4
:100AB0003B832A83C901880F991F0E94B30E888344
:100AC00099834C815D81D601FC0120E030E0241740
:100AD000350761F0309729F08D919C9111979183A2
:100AE00080832F5F3F4F12963296F1CFC6010E944E
:100AF000480F8C819D819C01220F331F8017910725
:100B000078F4E881F981E20FF31F309729F0D701DB
:100B10004D915C915183408301962E5F3F4FEECF04
:100B20001D830C83DF91CF911F910F91FF90EF9068
:100B3000DF90CF900895CF92DF92EF92FF920F93C4
:100B40001F93CF93DF936C017A018B01C0E0D0E05B
:100B5000CE15DF0589F0D8016D918D01D601ED919B
:100B6000FC910190F081E02DC6010995892B11F4CB
:100B70007E0102C02196ECCFC701DF91CF911F917A
:100B80000F91FF90EF90DF90CF900895682F87EF3F
:100B900091E00C94F0000F931F93CF93DF938B01A0
:100BA000C8EAD2E0988121E02093F6019093F50104
:100BB0001092F4011092F301A981BA81ED91FC9198
:100BC000119724E0829FC0011124BC016A5F7F4F0E
:100BD0000190F081E02DCD01099560E070E0898100
:100BE0009A810E94AE0360E070E089819A810E9440
:100BF000AE03B80189819A810E94AE03612F70E033
:100C000089819A810E94AE0389819A81DF91CF9177
:100C10001F910F910C94E30480919402909195029E
:100C2000009711F00C94AA0B60E070E0CB010895DE
:100C30001F93CF93DF93162FC8EAD2E0988121E06B
:100C40002093F6019093F5011092F4011092F301B4
:100C5000A981BA81ED91FC9111970190F081E02D6D
:100C6000682FCD01099589819A81DC01ED91FC9174
:100C70000190F081E02D612F099589819A81DF91A2
:100C8000CF911F910C94E304CF93DF9326E636E6D1
:100C900046E65FE30E94230C9B01AC0160E27CEB23
:100CA0008EEB95E40E94850D20E030E040E85FE3A4
:100CB0000E94180D20E030E040E05FE30E94190D33
:100CC0000E942D0E0E94FE0DD62F8091A80291E069
:100CD0009093F6018093F5011092F4011092F301C4
:100CE0008091A9029091AA02DC01ED91FC91019002
:100CF000F081E02D60E009958091A9029091AA020F
:100D00000E94E3048091A8029091D0019111FCCF40
:100D100091E09093D0019093CF012FEF2093CE01DB
:100D20001092CD011092CC019093CB019091CB0108
:100D3000880F892B8093CB018091CA01813061F4A7
:100D40001092CA018091CB018093BB008091BC00BE
:100D500083FDF8CF85EC01C085EE8093BC008091C7
:100D6000D0018130E1F38091CD01811103C08091E8
:100D7000CD0101C081E0AAEAB1E023ED31E0F90143
:100D80009E2F921B981718F49D919193F9CF109272
:100D9000D2018093D1018091A9029091AA02DC0135
:100DA000ED91FC910284F385E02D0995C82F8F7693
:100DB000682F606180E00E9418066D2F8EEF0E9400
:100DC00018066C2F80E00E94180665E070E080E055
:100DD00090E00E942A036C2F606A80E0DF91CF913F
:100DE0000C9418060F931F93CF93DF93EC01888127
:100DF0009981009729F02A813B812617370788F4CB
:100E00008B016F5F7F4F0E94E00F009761F0998325
:100E100088831B830A832C813D81232B11F4FC01E1
:100E2000108281E001C080E0DF91CF911F910F918E
:100E30000895EF92FF920F931F93CF93DF93EC01EE
:100E40007B018A01BA010E94F20628813981811151
:100E50000DC02115310519F0C9010E94480F1982F2
:100E600018821D821C821B821A8206C01D830C837D
:100E7000B701C9010E94B810CE01DF91CF911F9137
:100E80000F91FF90EF900895CF93DF93CDB7DEB72A
:100E90002E970FB6F894DEBF0FBECDBF789484B501
:100EA000826084BD84B5816084BD85B5826085BD66
:100EB00085B5816085BD80916E00816080936E00F4
:100EC00010928100809181008260809381008091E6
:100ED0008100816080938100809180008160809397
:100EE00080008091B10084608093B1008091B00057
:100EF00081608093B00080917A00846080937A0052
:100F000080917A00826080937A0080917A0081607B
:100F100080937A0080917A00806880937A001092A2
:100F2000C100E0910702F091080282E08083E09125
:100F30000302F09104021082E0910502F091060292
:100F400080E1808310920F02E0910B02F0910C027D
:100F500086E08083E0910902F0910A02808180613D
:100F60008083E0910902F0910A0280818860808389
:100F7000E0910902F0910A02808180688083E0910B
:100F80000902F0910A0280818F7D80831092D20144
:100F90001092D1011092F4011092F3011092D0013D
:100FA00081E08093CF011092CA0161E082E10E944A
:100FB000630161E083E10E9463018091B9008E7F4B
:100FC0008093B9008091B9008D7F8093B90088E447
:100FD0008093B80085E48093BC0060E880E00E94C4
:100FE00018066AE070E080E090E00E942A0360E06A
:100FF00070E08AE794E40E94440660E070E080E7D5
:1010000092E40E944406E1EBF0E02491EDE9F0E087
:101010008491882399F090E0880F991FFC01EA578A
:10102000FF4FA591B491FC01E458FF4F8591949135
:101030008FB7F894EC91E22BEC938FBF00E010E0B7
:1010400060E070E1802F0E94CB05C801880F991FD6
:10105000E0919A02F0919B02E80FF91F80E090E185
:10106000918380830F5F1F4F0031110549F781E0A5
:101070008093A70187EF91E00E94B9001816190626
:101080005CF08DE490E00E94C6056CE271E080E0C7
:1010900090E00E942A03EECF61E08DE00E946301A0
:1010A00064EF71E080E090E00E942A0360E08DE050
:1010B0000E94630164EF71E080E090E00E942A03E7
:1010C00061E08DE00E94630164EF71E080E090E0F8
:1010D0000E942A0360E08DE00E94630164EF71E0EA
:1010E00080E090E00E942A0361E08DE00E946301AD
:1010F00064EF71E080E090E00E942A0360E08DE000
:101100000E94630182E490E00E94C6058CE291E0B7
:1011100090939F0180939E01FF24F39487EF91E0C9
:101120000E94B90018161906ACF487EF91E00E94EE
:1011300097008093A901282F082E000C330B205311
:1011400031092A30310508F440C293ED980F9230EE
:1011500020F43BC20E945901E1CF823469F4F0923D
:10116000A8018091A5029091A602892BB9F2109254
:10117000A6021092A502D2CF833409F067C1109263
:10118000A801C12CD12C8091A5029091A602C8166D
:10119000D90678F58601000F111FE091A102F091A8
:1011A000A202E00FF11F808191818115904179F4B5
:1011B000A0919A02B0919B02A00FB11F8D919C91BA
:1011C0009183808360E070E18C2D0E94CB05E091DB
:1011D000A102F091A202E00FF11F80819181865956
:1011E0009109833C914008F014C28FEFC81AD80AC5
:1011F000CACF6AE972E0CE0101960E94970261EAC5
:1012000072E0CE0108960E949702A885B985E9810F
:10121000FA812C853D8580E090E08217930749F0A4
:101220006D917D91419151916417750721F401965B
:10123000F4CF11E001C010E0CE0108960E94CD026B
:10124000CE0101960E94CD021111FBC08091A70131
:10125000811151C0A091A102B091A202E0919A0225
:10126000F0919B028D919C91119720813181821B7D
:10127000930B97FF03C091958195910912962D913B
:101280003C91139742815381241B350B37FF03C0D8
:10129000319521953109821793070CF4C901909378
:1012A000A1018093A0014091A5025091A60214963D
:1012B000349622E030E024173507D0F48D919D91CB
:1012C00061917191861B970B97FF03C09195819552
:1012D00091096091A0017091A101861797070CF404
:1012E000CB019093A1018093A0012F5F3F4FE3CFEB
:1012F000C12CD12C34C000E010E08091A502909167
:10130000A6020817190788F4C801880F991FE091F1
:10131000A102F091A202E80FF91F60817181802F74
:101320000E94CB050F5F1F4FE8CF1092A701A0913D
:10133000A102B091A202E0919A02F0919B0280E09A
:1013400090E072C06091000170910101072E000CC5
:10135000880B990B0E942A032FEFC21AD20A8091A0
:10136000A0019091A1018C159D050CF300E010E007
:1013700026010D2C000C660877088091A50290913B
:10138000A60208171907F0F6C801880F991FA09147
:101390009A02B0919B02A80FB91F2D903C90E0914A
:1013A000A102F091A202E80FF91F60817181072E5E
:1013B000000C880B990B0E94E80B4B015C01B101FA
:1013C000032C000C880B990B0E94E80B9B01AC01CD
:1013D000C501B4010E94180D4B015C016091A00190
:1013E0007091A101072E000C880B990B0E94E80B4D
:1013F0009B01AC01C501B4010E94850D4B015C014C
:10140000C301B2010E94E80B9B01AC01C501B4010C
:101410000E94230C0E94F70D620D731D802F0E9405
:10142000CB050F5F1F4FA9CF2091A5023091A602D7
:101430008217930730F42D913D91219331930196BA
:10144000F3CF82E490E00E94C60568CE843419F49C
:10145000F092A60163CE853419F4F092A5015ECE18
:10146000863419F4F092A40159CE8A3009F056CE90
:101470008091A8018823F9F00E940C067A83698381
:101480008091A5029091A602BC016F5F7F4F8617E5
:10149000970740F4AE014F5F5F4F81EA92E00E94F0
:1014A00040058AC06817790708F086C07093A602C5
:1014B0006093A50281C08091A601882349F00E9413
:1014C0000C067093A3016093A2011092A60174C050
:1014D0008091A501882309F463C00E940C062B01AA
:1014E0003C016B01A090A201B090A3016115704175
:1014F00031F460E070E18A2D0E94CB054AC04501BD
:10150000880C991CE0919A02F0919B02E80DF91D5C
:1015100000811181011580E1180771F4B2018A2D53
:101520000E94CB0580919A0290919B02FC01E80DEC
:10153000F91D518240822DC04016510651F1B8016B
:101540008A2D0E94CB056091000170910101072E48
:10155000000C880B990B0E942A03E0919A02F091EB
:101560009B02E80DF91D808191819601281B390BA2
:10157000C901B90137FF04C066277727621B730BC7
:101580000E94850E060F171F0C151D05C1F611834D
:10159000008382E490E00E94C6051092A5010CC071
:1015A0008091A401882341F00E940C0670930101F0
:1015B000609300011092A40140E050E06CE271E001
:1015C00084E992E00E941907A9CD89831A820091CB
:1015D0009802109199020F5F1F4FB80184E992E0C1
:1015E0000E94F206882309F499CD2091940230914B
:1015F00095028091980290919902BE016F5F7F4F92
:10160000820F931F0E94B8101093990200939802C2
:1016100085CD80919A0290919B02DC01A00FB11FB1
:101620008D919C9191838083E0CD809194029091E3
:1016300095020E94480F8AE992E00E94CD0281EA59
:1016400092E00C94CD020F931F93CF93DF9300D0C1
:10165000CDB7DEB7E7EFF1E01382128288EE93E0B8
:10166000A0E0B0E084839583A683B7832CE031E0CB
:101670003183208325EC30E03587248724EC30E06B
:101680003787268720EC30E0318B208B21EC30E04F
:10169000338B228B22EC30E0358B248B26EC30E030
:1016A000378B268B118E128E138E148EEBEAF2E09E
:1016B0001382128284839583A683B7838EE191E09F
:1016C00091838083A8EAB2E080E48C931296FC9325
:1016D000EE93119701EA12E088E090E0F80193831D
:1016E00082831582148280E190E00E94B30EF8019B
:1016F000918380831A8219820AE912E0F801158227
:10170000148288E190E09383828380E390E00E94DA
:10171000B30EF80191838083AE014F5F5F4F60E1AC
:1017200070E0C8010E944005E4E9F2E011821082F5
:10173000138212821582148240E050E06CE271E064
:10174000CF010E9419070F900F90DF91CF911F9149
:101750000F9108951F93FC0199278827BC01E894F5
:1017600011911032E9F3193010F01E30C8F31B321A
:1017700051F01D3249F4689406C00E94D10B610FEC
:10178000711D811D911D119110531A30B0F33EF45B
:1017900090958095709561957F4F8F4F9F4F1F91CA
:1017A0000895592F482F372F262F660F771F881F30
:1017B000991F660F771F881F991F620F731F841F61
:1017C000951F660F771F881F991F0895E89409C019
:1017D00097FB3EF490958095709561957F4F8F4F64
:1017E0009F4F9923A9F0F92F96E9BB279395F6957A
:1017F000879577956795B795F111F8CFFAF4BB0FF8
:1018000011F460FF1BC06F5F7F4F8F4F9F4F16C05B
:10181000882311F096E911C0772321F09EE8872FE5
:10182000762F05C0662371F096E8862F70E060E0A1
:101830002AF09A95660F771F881FDAF7880F96951A
:10184000879597F908950E94360C0C94A70C0E9476
:10185000990C38F00E94A00C20F0952311F00C9404
:10186000900C0C94960C11240C94DB0C0E94B80C78
:1018700070F3959FC1F3950F50E0551F629FF001E3
:10188000729FBB27F00DB11D639FAA27F00DB11DFC
:10189000AA1F649F6627B00DA11D661F829F222785
:1018A000B00DA11D621F739FB00DA11D621F839F0C
:1018B000A00D611D221F749F3327A00D611D231FE2
:1018C000849F600D211D822F762F6A2F11249F5730
:1018D00050409AF0F1F088234AF0EE0FFF1FBB1F33
:1018E000661F771F881F91505040A9F79E3F5105F2
:1018F00080F00C94900C0C94DB0C5F3FE4F3983E6A
:10190000D4F3869577956795B795F795E7959F5F9B
:10191000C1F7FE2B880F911D9695879597F908952D
:1019200097F99F6780E870E060E008959FEF80EC92
:10193000089500240A941616170618060906089535
:1019400000240A9412161306140605060895092E9B
:101950000394000C11F4882352F0BB0F40F4BF2B0A
:1019600011F460FF04C06F5F7F4F8F4F9F4F08954A
:1019700057FD9058440F551F59F05F3F71F0479540
:10198000880F97FB991F61F09F3F79F08795089525
:10199000121613061406551FF2CF4695F1DF08C044
:1019A000161617061806991FF1CF86957105610561
:1019B00008940895E894BB2766277727CB0197F909
:1019C00008952F923F924F925F926F927F928F92E3
:1019D0009F92AF92BF92CF92DF92EF92FF920F93BE
:1019E0001F93CF93DF93CDB7DEB7CA1BDB0B0FB6C8
:1019F000F894DEBF0FBECDBF09942A883988488885
:101A00005F846E847D848C849B84AA84B984C8841A
:101A1000DF80EE80FD800C811B81AA81B981CE0F11
:101A2000D11D0FB6F894DEBF0FBECDBFED010895F6
:101A30005058BB27AA270E94300D0C94A70C0E9477
:101A4000990C38F00E94A00C20F039F49F3F19F453
:101A500026F40C94960C0EF4E095E7FB0C94900C95
:101A6000E92F0E94B80C58F3BA176207730784076E
:101A7000950720F079F4A6F50C94DA0C0EF4E095B5
:101A80000B2EBA2FA02D0B01B90190010C01CA0138
:101A9000A0011124FF27591B99F0593F50F4503EE3
:101AA00068F11A16F040A22F232F342F4427585FD5
:101AB000F3CF469537952795A795F0405395C9F7ED
:101AC0007EF41F16BA0B620B730B840BBAF09150A5
:101AD000A1F0FF0FBB1F661F771F881FC2F70EC044
:101AE000BA0F621F731F841F48F487957795679517
:101AF000B795F7959E3F08F0B0CF9395880F08F003
:101B00009927EE0F9795879508950E94990D0C944B
:101B1000A70C0E94A00C58F00E94990C40F029F4E8
:101B20005F3F29F00C94900C51110C94DB0C0C9439
:101B3000960C0E94B80C68F39923B1F3552391F3E6
:101B4000951B550BBB27AA2762177307840738F02C
:101B50009F5F5F4F220F331F441FAA1FA9F335D089
:101B60000E2E3AF0E0E832D091505040E695001C3D
:101B7000CAF72BD0FE2F29D0660F771F881FBB1FF7
:101B8000261737074807AB07B0E809F0BB0B802DD5
:101B9000BF01FF2793585F4F3AF09E3F510578F001
:101BA0000C94900C0C94DB0C5F3FE4F3983ED4F360
:101BB000869577956795B795F7959F5FC9F7880FD5
:101BC000911D9695879597F90895E1E0660F771F27
:101BD000881FBB1F621773078407BA0720F0621BB8
:101BE000730B840BBA0BEE1F88F7E09508950E94E3
:101BF000FE0D6894B1110C94DB0C08950E94C00C8A
:101C000088F09F5798F0B92F9927B751B0F0E1F0BD
:101C1000660F771F881F991F1AF0BA95C9F714C06D
:101C2000B13091F00E94DA0CB1E008950C94DA0C16
:101C3000672F782F8827B85F39F0B93FCCF38695A6
:101C400077956795B395D9F73EF490958095709503
:101C500061957F4F8F4F9F4F08950E946D0E90F0BA
:101C60009F3748F4911116F00C94DB0C60E070E0A3
:101C700080E89FEB089526F41B16611D711D811DE0
:101C80000C94440E0C945F0E882371F4772321F09A
:101C90009850872B762F07C0662311F499270DC023
:101CA0009051862B70E060E02AF09A95660F771FBE
:101CB000881FDAF7880F9695879597F908959F3FC3
:101CC00031F0915020F4879577956795B795880FF7
:101CD000911D9695879597F908950E94C00CA0F0E4
:101CE000BEE7B91788F4BB279F3860F41616B11DFC
:101CF000672F782F8827985FF7CF86957795679518
:101D0000B11D93959639C8F3089597FB072E16F4E5
:101D1000009407D077FD09D00E94990E07FC05D0EA
:101D20003EF4909581959F4F0895709561957F4FF2
:101D30000895AA1BBB1B51E107C0AA1FBB1FA61712
:101D4000B70710F0A61BB70B881F991F5A95A9F764
:101D500080959095BC01CD010895EE0FFF1F059071
:101D6000F491E02D0994CF93DF938230910510F424
:101D700082E090E0E091B902F091BA0220E030E018
:101D8000C0E0D0E0309711F14081518148175907E8
:101D9000C0F04817590761F482819381209719F0A8
:101DA0009B838A832BC09093BA028093B90226C08A
:101DB0002115310519F04217530718F49A01BE0195
:101DC000DF01EF010280F381E02DDCCF2115310529
:101DD00009F1281B390B2430310590F412968D91AE
:101DE0009C9113976115710521F0FB019383828308
:101DF00004C09093BA028093B902FD01329644C0A8
:101E0000FD01E20FF31F81939193225031092D932D
:101E10003C933AC02091B7023091B802232B41F491
:101E200020910401309105013093B8022093B7024C
:101E300020910201309103012115310541F42DB7A4
:101E40003EB74091060150910701241B350BE091EC
:101E5000B702F091B802E217F307A0F42E1B3F0B74
:101E60002817390778F0AC014E5F5F4F241735070C
:101E700048F04E0F5F1F5093B8024093B702819312
:101E8000919302C0E0E0F0E0CF01DF91CF9108959F
:101E90000F931F93CF93DF93009709F48CC0FC013D
:101EA0003297138212820091B9021091BA02011581
:101EB000110581F420813181820F931F2091B70297
:101EC0003091B8022817390779F5F093B802E093FA
:101ED000B70271C0D80140E050E0AE17BF0750F420
:101EE00012962D913C911397AD012115310509F101
:101EF000D901F3CF9D01DA0133832283608171819F
:101F0000860F971F8217930769F4EC0128813981A6
:101F1000260F371F2E5F3F4F318320838A819B819D
:101F200093838283452B29F4F093BA02E093B9029C
:101F300042C01396FC93EE931297ED01499159918B
:101F40009E01240F351FE217F30771F48081918100
:101F5000840F951F029611969C938E938281938194
:101F600013969C938E931297E0E0F0E0D8011296BE
:101F70008D919C911397009719F0F8018C01F6CF81
:101F80008D919C9198012E5F3F4F820F931F20915E
:101F9000B7023091B8022817390769F4309729F44D
:101FA0001092BA021092B90202C0138212821093E8
:101FB000B8020093B702DF91CF911F910F9108955E
:101FC000A0E0B0E0E6EEFFE00C94E50CEC01009739
:101FD00021F4CB010E94B30EB8C0FC01E60FF71F3D
:101FE0009C0122503109E217F30708F4ACC0D90173
:101FF0000D911C91119706171707B0F005301105C8
:1020000008F49FC0C80104978617970708F499C081
:1020100002501109061B170B019311936D937C93CA
:10202000CF010E94480F8DC05B01A01AB10A4C017C
:10203000800E911EA091B902B091BA0240E050E02A
:10204000E12CF12C109709F44AC0A815B905D1F577
:102050006D907C901197630182E0C80ED11CCA1468
:10206000DB0480F1A3014A195B096A0182E0C80E12
:10207000D11C1296BC9012971396AC91B5E0CB167A
:10208000D10440F0B282A38351834083D9016D9380
:102090007C930AC00E5F1F4FC301800F911FF9018F
:1020A00091838083EB2DFA2FE114F10431F0D701F5
:1020B0001396FC93EE93129744C0F093BA02E09308
:1020C000B9023FC08D919C9111974817590708F4A8
:1020D000AC017D0112960D90BC91A02DB3CF8091E3
:1020E000B7029091B80288159905E1F44617570791
:1020F000C8F48091020190910301009741F48DB7DB
:102100009EB74091060150910701841B950BE8177B
:10211000F907C8F4F093B802E093B702F9017183AC
:1021200060830FC0CB010E94B30E7C01009759F071
:10213000A801BE010E94AF10CE010E94480FC70146
:1021400004C0CE0102C080E090E0CDB7DEB7EEE083
:102150000C94010D81E090E0F8940C94BF10FB0109
:10216000DC0102C001900D9241505040D8F7089513
:10217000FB01DC0101900D920020E1F7089510E0D1
:10218000CDE5D0E004C0FE010E94AD0E2196CE3513
:08219000D107C9F7F894FFCF55
:1021980001000000BB02800000000000F0009B0569
:1021A80088003701B9009700AB0000000000620208
:0E21B8003202920206022A02160207020000FC
:00000001FF
